{
  "_format": "hh-sol-artifact-1",
  "contractName": "FileStorage",
  "sourceName": "contracts/FileStorage.sol",
  "abi": [
    {
      "anonymous": false,
      "inputs": [
        {
          "indexed": true,
          "internalType": "address",
          "name": "user",
          "type": "address"
        },
        {
          "indexed": false,
          "internalType": "string",
          "name": "ipfsHash",
          "type": "string"
        }
      ],
      "name": "FileDeleted",
      "type": "event"
    },
    {
      "anonymous": false,
      "inputs": [
        {
          "indexed": true,
          "internalType": "address",
          "name": "user",
          "type": "address"
        },
        {
          "indexed": false,
          "internalType": "string",
          "name": "ipfsHash",
          "type": "string"
        },
        {
          "indexed": false,
          "internalType": "string",
          "name": "fileName",
          "type": "string"
        },
        {
          "indexed": false,
          "internalType": "uint256",
          "name": "timestamp",
          "type": "uint256"
        }
      ],
      "name": "FileUploaded",
      "type": "event"
    },
    {
      "inputs": [
        {
          "internalType": "string",
          "name": "_ipfsHash",
          "type": "string"
        },
        {
          "internalType": "string",
          "name": "_fileName",
          "type": "string"
        }
      ],
      "name": "addFile",
      "outputs": [],
      "stateMutability": "nonpayable",
      "type": "function"
    },
    {
      "inputs": [
        {
          "internalType": "uint256",
          "name": "_fileIndex",
          "type": "uint256"
        }
      ],
      "name": "deleteFile",
      "outputs": [],
      "stateMutability": "nonpayable",
      "type": "function"
    },
    {
      "inputs": [],
      "name": "getUserFileCount",
      "outputs": [
        {
          "internalType": "uint256",
          "name": "",
          "type": "uint256"
        }
      ],
      "stateMutability": "view",
      "type": "function"
    },
    {
      "inputs": [],
      "name": "getUserFiles",
      "outputs": [
        {
          "components": [
            {
              "internalType": "string",
              "name": "fileName",
              "type": "string"
            },
            {
              "internalType": "string",
              "name": "ipfsHash",
              "type": "string"
            },
            {
              "internalType": "bool",
              "name": "exists",
              "type": "bool"
            }
          ],
          "internalType": "struct FileStorage.File[]",
          "name": "",
          "type": "tuple[]"
        }
      ],
      "stateMutability": "view",
      "type": "function"
    }
  ],
  "bytecode": "0x608060405234801561001057600080fd5b50611162806100206000396000f3fe608060405234801561001057600080fd5b506004361061004c5760003560e01c80631194298914610051578063248bfc3b1461006f578063c5b420061461008b578063fe8712e7146100a7575b600080fd5b6100596100c5565b604051610066919061094e565b60405180910390f35b61008960048036038101906100849190610ab9565b61029f565b005b6100a560048036038101906100a09190610b67565b610456565b005b6100af610741565b6040516100bc9190610ba3565b60405180910390f35b60606000803373ffffffffffffffffffffffffffffffffffffffff1673ffffffffffffffffffffffffffffffffffffffff168152602001908152602001600020805480602002602001604051908101604052809291908181526020016000905b82821015610296578382906000526020600020906003020160405180606001604052908160008201805461015890610bed565b80601f016020809104026020016040519081016040528092919081815260200182805461018490610bed565b80156101d15780601f106101a6576101008083540402835291602001916101d1565b820191906000526020600020905b8154815290600101906020018083116101b457829003601f168201915b505050505081526020016001820180546101ea90610bed565b80601f016020809104026020016040519081016040528092919081815260200182805461021690610bed565b80156102635780601f1061023857610100808354040283529160200191610263565b820191906000526020600020905b81548152906001019060200180831161024657829003601f168201915b505050505081526020016002820160009054906101000a900460ff16151515158152505081526020019060010190610125565b50505050905090565b60008251116102e3576040517f08c379a00000000000000000000000000000000000000000000000000000000081526004016102da90610c7b565b60405180910390fd5b6000815111610327576040517f08c379a000000000000000000000000000000000000000000000000000000000815260040161031e90610ce7565b60405180910390fd5b600060405180606001604052808381526020018481526020016001151581525090506000803373ffffffffffffffffffffffffffffffffffffffff1673ffffffffffffffffffffffffffffffffffffffff16815260200190815260200160002081908060018154018082558091505060019003906000526020600020906003020160009091909190915060008201518160000190816103c69190610eb3565b5060208201518160010190816103dc9190610eb3565b5060408201518160020160006101000a81548160ff02191690831515021790555050503373ffffffffffffffffffffffffffffffffffffffff167fbfefa59b16be4b348ad74254e31f16a631ec47799e24b3cba0ba5df3e9c21cab84844260405161044993929190610fbe565b60405180910390a2505050565b6000803373ffffffffffffffffffffffffffffffffffffffff1673ffffffffffffffffffffffffffffffffffffffff1681526020019081526020016000208054905081106104d9576040517f08c379a00000000000000000000000000000000000000000000000000000000081526004016104d09061104f565b60405180910390fd5b6000803373ffffffffffffffffffffffffffffffffffffffff1673ffffffffffffffffffffffffffffffffffffffff16815260200190815260200160002081815481106105295761052861106f565b5b906000526020600020906003020160020160009054906101000a900460ff16610587576040517f08c379a000000000000000000000000000000000000000000000000000000000815260040161057e906110ea565b60405180910390fd5b60008060003373ffffffffffffffffffffffffffffffffffffffff1673ffffffffffffffffffffffffffffffffffffffff16815260200190815260200160002082815481106105d9576105d861106f565b5b906000526020600020906003020160010180546105f590610bed565b80601f016020809104026020016040519081016040528092919081815260200182805461062190610bed565b801561066e5780601f106106435761010080835404028352916020019161066e565b820191906000526020600020905b81548152906001019060200180831161065157829003601f168201915b5050505050905060008060003373ffffffffffffffffffffffffffffffffffffffff1673ffffffffffffffffffffffffffffffffffffffff16815260200190815260200160002083815481106106c7576106c661106f565b5b906000526020600020906003020160020160006101000a81548160ff0219169083151502179055503373ffffffffffffffffffffffffffffffffffffffff167f14a51c77a00d5c4c3ccc7a4df74f169088c4d4d04859d176729645e53c7b895c82604051610735919061110a565b60405180910390a25050565b60008060003373ffffffffffffffffffffffffffffffffffffffff1673ffffffffffffffffffffffffffffffffffffffff16815260200190815260200160002080549050905090565b600081519050919050565b600082825260208201905092915050565b6000819050602082019050919050565b600081519050919050565b600082825260208201905092915050565b60005b838110156107f05780820151818401526020810190506107d5565b60008484015250505050565b6000601f19601f8301169050919050565b6000610818826107b6565b61082281856107c1565b93506108328185602086016107d2565b61083b816107fc565b840191505092915050565b60008115159050919050565b61085b81610846565b82525050565b6000606083016000830151848203600086015261087e828261080d565b91505060208301518482036020860152610898828261080d565b91505060408301516108ad6040860182610852565b508091505092915050565b60006108c48383610861565b905092915050565b6000602082019050919050565b60006108e48261078a565b6108ee8185610795565b935083602082028501610900856107a6565b8060005b8581101561093c578484038952815161091d85826108b8565b9450610928836108cc565b925060208a01995050600181019050610904565b50829750879550505050505092915050565b6000602082019050818103600083015261096881846108d9565b905092915050565b6000604051905090565b600080fd5b600080fd5b600080fd5b600080fd5b7f4e487b7100000000000000000000000000000000000000000000000000000000600052604160045260246000fd5b6109c6826107fc565b810181811067ffffffffffffffff821117156109e5576109e461098e565b5b80604052505050565b60006109f8610970565b9050610a0482826109bd565b919050565b600067ffffffffffffffff821115610a2457610a2361098e565b5b610a2d826107fc565b9050602081019050919050565b82818337600083830152505050565b6000610a5c610a5784610a09565b6109ee565b905082815260208101848484011115610a7857610a77610989565b5b610a83848285610a3a565b509392505050565b600082601f830112610aa057610a9f610984565b5b8135610ab0848260208601610a49565b91505092915050565b60008060408385031215610ad057610acf61097a565b5b600083013567ffffffffffffffff811115610aee57610aed61097f565b5b610afa85828601610a8b565b925050602083013567ffffffffffffffff811115610b1b57610b1a61097f565b5b610b2785828601610a8b565b9150509250929050565b6000819050919050565b610b4481610b31565b8114610b4f57600080fd5b50565b600081359050610b6181610b3b565b92915050565b600060208284031215610b7d57610b7c61097a565b5b6000610b8b84828501610b52565b91505092915050565b610b9d81610b31565b82525050565b6000602082019050610bb86000830184610b94565b92915050565b7f4e487b7100000000000000000000000000000000000000000000000000000000600052602260045260246000fd5b60006002820490506001821680610c0557607f821691505b602082108103610c1857610c17610bbe565b5b50919050565b600082825260208201905092915050565b7f4950465320686173682063616e6e6f7420626520656d70747900000000000000600082015250565b6000610c65601983610c1e565b9150610c7082610c2f565b602082019050919050565b60006020820190508181036000830152610c9481610c58565b9050919050565b7f46696c65206e616d652063616e6e6f7420626520656d70747900000000000000600082015250565b6000610cd1601983610c1e565b9150610cdc82610c9b565b602082019050919050565b60006020820190508181036000830152610d0081610cc4565b9050919050565b60008190508160005260206000209050919050565b60006020601f8301049050919050565b600082821b905092915050565b600060088302610d697fffffffffffffffffffffffffffffffffffffffffffffffffffffffffffffffff82610d2c565b610d738683610d2c565b95508019841693508086168417925050509392505050565b6000819050919050565b6000610db0610dab610da684610b31565b610d8b565b610b31565b9050919050565b6000819050919050565b610dca83610d95565b610dde610dd682610db7565b848454610d39565b825550505050565b600090565b610df3610de6565b610dfe818484610dc1565b505050565b5b81811015610e2257610e17600082610deb565b600181019050610e04565b5050565b601f821115610e6757610e3881610d07565b610e4184610d1c565b81016020851015610e50578190505b610e64610e5c85610d1c565b830182610e03565b50505b505050565b600082821c905092915050565b6000610e8a60001984600802610e6c565b1980831691505092915050565b6000610ea38383610e79565b9150826002028217905092915050565b610ebc826107b6565b67ffffffffffffffff811115610ed557610ed461098e565b5b610edf8254610bed565b610eea828285610e26565b600060209050601f831160018114610f1d5760008415610f0b578287015190505b610f158582610e97565b865550610f7d565b601f198416610f2b86610d07565b60005b82811015610f5357848901518255600182019150602085019450602081019050610f2e565b86831015610f705784890151610f6c601f891682610e79565b8355505b6001600288020188555050505b505050505050565b6000610f90826107b6565b610f9a8185610c1e565b9350610faa8185602086016107d2565b610fb3816107fc565b840191505092915050565b60006060820190508181036000830152610fd88186610f85565b90508181036020830152610fec8185610f85565b9050610ffb6040830184610b94565b949350505050565b7f46696c6520696e646578206f7574206f6620626f756e64730000000000000000600082015250565b6000611039601883610c1e565b915061104482611003565b602082019050919050565b600060208201905081810360008301526110688161102c565b9050919050565b7f4e487b7100000000000000000000000000000000000000000000000000000000600052603260045260246000fd5b7f46696c6520616c72656164792064656c65746564000000000000000000000000600082015250565b60006110d4601483610c1e565b91506110df8261109e565b602082019050919050565b60006020820190508181036000830152611103816110c7565b9050919050565b600060208201905081810360008301526111248184610f85565b90509291505056fea26469706673582212207e0975555d20186c6d81160b5025ec988701b128e7f081a734b70737fd8ece9a64736f6c63430008130033",
  "linkReferences": {},
  "deployedLinkReferences": {}
}