{
  "_format": "hh-sol-artifact-1",
  "contractName": "FileStorage",
  "sourceName": "contracts/FileStorage.sol",
  "abi": [
    {
      "anonymous": false,
      "inputs": [
        {
          "indexed": true,
          "internalType": "address",
          "name": "user",
          "type": "address"
        },
        {
          "indexed": false,
          "internalType": "string",
          "name": "ipfsHash",
          "type": "string"
        }
      ],
      "name": "FileDeleted",
      "type": "event"
    },
    {
      "anonymous": false,
      "inputs": [
        {
          "indexed": true,
          "internalType": "address",
          "name": "user",
          "type": "address"
        },
        {
          "indexed": false,
          "internalType": "string",
          "name": "ipfsHash",
          "type": "string"
        },
        {
          "indexed": false,
          "internalType": "string",
          "name": "fileName",
          "type": "string"
        },
        {
          "indexed": false,
          "internalType": "uint256",
          "name": "timestamp",
          "type": "uint256"
        }
      ],
      "name": "FileUploaded",
      "type": "event"
    },
    {
      "inputs": [
        {
          "internalType": "string",
          "name": "_ipfsHash",
          "type": "string"
        },
        {
          "internalType": "string",
          "name": "_fileName",
          "type": "string"
        }
      ],
      "name": "addFile",
      "outputs": [],
      "stateMutability": "nonpayable",
      "type": "function"
    },
    {
      "inputs": [
        {
          "internalType": "uint256",
          "name": "_fileIndex",
          "type": "uint256"
        }
      ],
      "name": "deleteFile",
      "outputs": [],
      "stateMutability": "nonpayable",
      "type": "function"
    },
    {
      "inputs": [],
      "name": "getUserFileCount",
      "outputs": [
        {
          "internalType": "uint256",
          "name": "",
          "type": "uint256"
        }
      ],
      "stateMutability": "view",
      "type": "function"
    },
    {
      "inputs": [],
      "name": "getUserFiles",
      "outputs": [
        {
          "components": [
            {
              "internalType": "string",
              "name": "ipfsHash",
              "type": "string"
            },
            {
              "internalType": "string",
              "name": "fileName",
              "type": "string"
            },
            {
              "internalType": "uint256",
              "name": "timestamp",
              "type": "uint256"
            },
            {
              "internalType": "bool",
              "name": "exists",
              "type": "bool"
            }
          ],
          "internalType": "struct FileStorage.FileInfo[]",
          "name": "",
          "type": "tuple[]"
        }
      ],
      "stateMutability": "view",
      "type": "function"
    }
  ],
  "bytecode": "0x6080604052348015600f57600080fd5b5061119e8061001f6000396000f3fe608060405234801561001057600080fd5b506004361061004c5760003560e01c80631194298914610051578063248bfc3b1461006f578063c5b420061461008b578063fe8712e7146100a7575b600080fd5b6100596100c5565b6040516100669190610994565b60405180910390f35b61008960048036038101906100849190610aff565b6102a9565b005b6100a560048036038101906100a09190610ba3565b610470565b005b6100af61075b565b6040516100bc9190610bdf565b60405180910390f35b60606000803373ffffffffffffffffffffffffffffffffffffffff1673ffffffffffffffffffffffffffffffffffffffff168152602001908152602001600020805480602002602001604051908101604052809291908181526020016000905b828210156102a0578382906000526020600020906004020160405180608001604052908160008201805461015890610c29565b80601f016020809104026020016040519081016040528092919081815260200182805461018490610c29565b80156101d15780601f106101a6576101008083540402835291602001916101d1565b820191906000526020600020905b8154815290600101906020018083116101b457829003601f168201915b505050505081526020016001820180546101ea90610c29565b80601f016020809104026020016040519081016040528092919081815260200182805461021690610c29565b80156102635780601f1061023857610100808354040283529160200191610263565b820191906000526020600020905b81548152906001019060200180831161024657829003601f168201915b50505050508152602001600282015481526020016003820160009054906101000a900460ff16151515158152505081526020019060010190610125565b50505050905090565b60008251116102ed576040517f08c379a00000000000000000000000000000000000000000000000000000000081526004016102e490610cb7565b60405180910390fd5b6000815111610331576040517f08c379a000000000000000000000000000000000000000000000000000000000815260040161032890610d23565b60405180910390fd5b600060405180608001604052808481526020018381526020014281526020016001151581525090506000803373ffffffffffffffffffffffffffffffffffffffff1673ffffffffffffffffffffffffffffffffffffffff16815260200190815260200160002081908060018154018082558091505060019003906000526020600020906004020160009091909190915060008201518160000190816103d69190610eef565b5060208201518160010190816103ec9190610eef565b506040820151816002015560608201518160030160006101000a81548160ff02191690831515021790555050503373ffffffffffffffffffffffffffffffffffffffff167fbfefa59b16be4b348ad74254e31f16a631ec47799e24b3cba0ba5df3e9c21cab84844260405161046393929190610ffa565b60405180910390a2505050565b6000803373ffffffffffffffffffffffffffffffffffffffff1673ffffffffffffffffffffffffffffffffffffffff1681526020019081526020016000208054905081106104f3576040517f08c379a00000000000000000000000000000000000000000000000000000000081526004016104ea9061108b565b60405180910390fd5b6000803373ffffffffffffffffffffffffffffffffffffffff1673ffffffffffffffffffffffffffffffffffffffff1681526020019081526020016000208181548110610543576105426110ab565b5b906000526020600020906004020160030160009054906101000a900460ff166105a1576040517f08c379a000000000000000000000000000000000000000000000000000000000815260040161059890611126565b60405180910390fd5b60008060003373ffffffffffffffffffffffffffffffffffffffff1673ffffffffffffffffffffffffffffffffffffffff16815260200190815260200160002082815481106105f3576105f26110ab565b5b9060005260206000209060040201600001805461060f90610c29565b80601f016020809104026020016040519081016040528092919081815260200182805461063b90610c29565b80156106885780601f1061065d57610100808354040283529160200191610688565b820191906000526020600020905b81548152906001019060200180831161066b57829003601f168201915b5050505050905060008060003373ffffffffffffffffffffffffffffffffffffffff1673ffffffffffffffffffffffffffffffffffffffff16815260200190815260200160002083815481106106e1576106e06110ab565b5b906000526020600020906004020160030160006101000a81548160ff0219169083151502179055503373ffffffffffffffffffffffffffffffffffffffff167f14a51c77a00d5c4c3ccc7a4df74f169088c4d4d04859d176729645e53c7b895c8260405161074f9190611146565b60405180910390a25050565b60008060003373ffffffffffffffffffffffffffffffffffffffff1673ffffffffffffffffffffffffffffffffffffffff16815260200190815260200160002080549050905090565b600081519050919050565b600082825260208201905092915050565b6000819050602082019050919050565b600081519050919050565b600082825260208201905092915050565b60005b8381101561080a5780820151818401526020810190506107ef565b60008484015250505050565b6000601f19601f8301169050919050565b6000610832826107d0565b61083c81856107db565b935061084c8185602086016107ec565b61085581610816565b840191505092915050565b6000819050919050565b61087381610860565b82525050565b60008115159050919050565b61088e81610879565b82525050565b600060808301600083015184820360008601526108b18282610827565b915050602083015184820360208601526108cb8282610827565b91505060408301516108e0604086018261086a565b5060608301516108f36060860182610885565b508091505092915050565b600061090a8383610894565b905092915050565b6000602082019050919050565b600061092a826107a4565b61093481856107af565b935083602082028501610946856107c0565b8060005b85811015610982578484038952815161096385826108fe565b945061096e83610912565b925060208a0199505060018101905061094a565b50829750879550505050505092915050565b600060208201905081810360008301526109ae818461091f565b905092915050565b6000604051905090565b600080fd5b600080fd5b600080fd5b600080fd5b7f4e487b7100000000000000000000000000000000000000000000000000000000600052604160045260246000fd5b610a0c82610816565b810181811067ffffffffffffffff82111715610a2b57610a2a6109d4565b5b80604052505050565b6000610a3e6109b6565b9050610a4a8282610a03565b919050565b600067ffffffffffffffff821115610a6a57610a696109d4565b5b610a7382610816565b9050602081019050919050565b82818337600083830152505050565b6000610aa2610a9d84610a4f565b610a34565b905082815260208101848484011115610abe57610abd6109cf565b5b610ac9848285610a80565b509392505050565b600082601f830112610ae657610ae56109ca565b5b8135610af6848260208601610a8f565b91505092915050565b60008060408385031215610b1657610b156109c0565b5b600083013567ffffffffffffffff811115610b3457610b336109c5565b5b610b4085828601610ad1565b925050602083013567ffffffffffffffff811115610b6157610b606109c5565b5b610b6d85828601610ad1565b9150509250929050565b610b8081610860565b8114610b8b57600080fd5b50565b600081359050610b9d81610b77565b92915050565b600060208284031215610bb957610bb86109c0565b5b6000610bc784828501610b8e565b91505092915050565b610bd981610860565b82525050565b6000602082019050610bf46000830184610bd0565b92915050565b7f4e487b7100000000000000000000000000000000000000000000000000000000600052602260045260246000fd5b60006002820490506001821680610c4157607f821691505b602082108103610c5457610c53610bfa565b5b50919050565b600082825260208201905092915050565b7f4950465320686173682063616e6e6f7420626520656d70747900000000000000600082015250565b6000610ca1601983610c5a565b9150610cac82610c6b565b602082019050919050565b60006020820190508181036000830152610cd081610c94565b9050919050565b7f46696c65206e616d652063616e6e6f7420626520656d70747900000000000000600082015250565b6000610d0d601983610c5a565b9150610d1882610cd7565b602082019050919050565b60006020820190508181036000830152610d3c81610d00565b9050919050565b60008190508160005260206000209050919050565b60006020601f8301049050919050565b600082821b905092915050565b600060088302610da57fffffffffffffffffffffffffffffffffffffffffffffffffffffffffffffffff82610d68565b610daf8683610d68565b95508019841693508086168417925050509392505050565b6000819050919050565b6000610dec610de7610de284610860565b610dc7565b610860565b9050919050565b6000819050919050565b610e0683610dd1565b610e1a610e1282610df3565b848454610d75565b825550505050565b600090565b610e2f610e22565b610e3a818484610dfd565b505050565b5b81811015610e5e57610e53600082610e27565b600181019050610e40565b5050565b601f821115610ea357610e7481610d43565b610e7d84610d58565b81016020851015610e8c578190505b610ea0610e9885610d58565b830182610e3f565b50505b505050565b600082821c905092915050565b6000610ec660001984600802610ea8565b1980831691505092915050565b6000610edf8383610eb5565b9150826002028217905092915050565b610ef8826107d0565b67ffffffffffffffff811115610f1157610f106109d4565b5b610f1b8254610c29565b610f26828285610e62565b600060209050601f831160018114610f595760008415610f47578287015190505b610f518582610ed3565b865550610fb9565b601f198416610f6786610d43565b60005b82811015610f8f57848901518255600182019150602085019450602081019050610f6a565b86831015610fac5784890151610fa8601f891682610eb5565b8355505b6001600288020188555050505b505050505050565b6000610fcc826107d0565b610fd68185610c5a565b9350610fe68185602086016107ec565b610fef81610816565b840191505092915050565b600060608201905081810360008301526110148186610fc1565b905081810360208301526110288185610fc1565b90506110376040830184610bd0565b949350505050565b7f46696c6520696e646578206f7574206f6620626f756e64730000000000000000600082015250565b6000611075601883610c5a565b91506110808261103f565b602082019050919050565b600060208201905081810360008301526110a481611068565b9050919050565b7f4e487b7100000000000000000000000000000000000000000000000000000000600052603260045260246000fd5b7f46696c6520616c72656164792064656c65746564000000000000000000000000600082015250565b6000611110601483610c5a565b915061111b826110da565b602082019050919050565b6000602082019050818103600083015261113f81611103565b9050919050565b600060208201905081810360008301526111608184610fc1565b90509291505056fea264697066735822122024adb96d834f364485680a26d1cd1f930099655f3b77e3fc5d66435444c719e464736f6c634300081b0033",
  "linkReferences": {},
  "deployedLinkReferences": {}
}