{
  "_format": "hh-sol-artifact-1",
  "contractName": "FileStorage",
  "sourceName": "contracts/FileStorage.sol",
  "abi": [
    {
      "anonymous": false,
      "inputs": [
        {
          "indexed": true,
          "internalType": "address",
          "name": "user",
          "type": "address"
        },
        {
          "indexed": false,
          "internalType": "string",
          "name": "ipfsHash",
          "type": "string"
        }
      ],
      "name": "FileDeleted",
      "type": "event"
    },
    {
      "anonymous": false,
      "inputs": [
        {
          "indexed": true,
          "internalType": "address",
          "name": "user",
          "type": "address"
        },
        {
          "indexed": false,
          "internalType": "string",
          "name": "ipfsHash",
          "type": "string"
        },
        {
          "indexed": false,
          "internalType": "string",
          "name": "fileName",
          "type": "string"
        },
        {
          "indexed": false,
          "internalType": "uint256",
          "name": "timestamp",
          "type": "uint256"
        }
      ],
      "name": "FileRecovery",
      "type": "event"
    },
    {
      "anonymous": false,
      "inputs": [
        {
          "indexed": true,
          "internalType": "address",
          "name": "user",
          "type": "address"
        },
        {
          "indexed": false,
          "internalType": "string",
          "name": "ipfsHash",
          "type": "string"
        },
        {
          "indexed": false,
          "internalType": "string",
          "name": "fileName",
          "type": "string"
        },
        {
          "indexed": false,
          "internalType": "uint256",
          "name": "timestamp",
          "type": "uint256"
        }
      ],
      "name": "FileUploaded",
      "type": "event"
    },
    {
      "inputs": [
        {
          "internalType": "string",
          "name": "_ipfsHash",
          "type": "string"
        },
        {
          "internalType": "string",
          "name": "_fileName",
          "type": "string"
        }
      ],
      "name": "addFile",
      "outputs": [],
      "stateMutability": "nonpayable",
      "type": "function"
    },
    {
      "inputs": [
        {
          "internalType": "string",
          "name": "_ipfsHash",
          "type": "string"
        }
      ],
      "name": "deleteFile",
      "outputs": [],
      "stateMutability": "nonpayable",
      "type": "function"
    },
    {
      "inputs": [],
      "name": "getUserFileCount",
      "outputs": [
        {
          "internalType": "uint256",
          "name": "",
          "type": "uint256"
        }
      ],
      "stateMutability": "view",
      "type": "function"
    },
    {
      "inputs": [],
      "name": "getUserFiles",
      "outputs": [
        {
          "components": [
            {
              "internalType": "string",
              "name": "fileName",
              "type": "string"
            },
            {
              "internalType": "string",
              "name": "ipfsHash",
              "type": "string"
            },
            {
              "internalType": "bool",
              "name": "exists",
              "type": "bool"
            }
          ],
          "internalType": "struct FileStorage.File[]",
          "name": "",
          "type": "tuple[]"
        }
      ],
      "stateMutability": "view",
      "type": "function"
    },
    {
      "inputs": [
        {
          "internalType": "string",
          "name": "_ipfsHash",
          "type": "string"
        }
      ],
      "name": "recoverFile",
      "outputs": [],
      "stateMutability": "nonpayable",
      "type": "function"
    }
  ],
  "bytecode": "0x608060405234801561001057600080fd5b50611706806100206000396000f3fe608060405234801561001057600080fd5b50600436106100575760003560e01c8063119429891461005c578063248bfc3b1461007a578063846d173b14610096578063a9910054146100b2578063fe8712e7146100ce575b600080fd5b6100646100ec565b6040516100719190610d32565b60405180910390f35b610094600480360381019061008f9190610e9d565b6102c6565b005b6100b060048036038101906100ab9190610f15565b61047d565b005b6100cc60048036038101906100c79190610f15565b61084e565b005b6100d6610b25565b6040516100e39190610f77565b60405180910390f35b60606000803373ffffffffffffffffffffffffffffffffffffffff1673ffffffffffffffffffffffffffffffffffffffff168152602001908152602001600020805480602002602001604051908101604052809291908181526020016000905b828210156102bd578382906000526020600020906003020160405180606001604052908160008201805461017f90610fc1565b80601f01602080910402602001604051908101604052809291908181526020018280546101ab90610fc1565b80156101f85780601f106101cd576101008083540402835291602001916101f8565b820191906000526020600020905b8154815290600101906020018083116101db57829003601f168201915b5050505050815260200160018201805461021190610fc1565b80601f016020809104026020016040519081016040528092919081815260200182805461023d90610fc1565b801561028a5780601f1061025f5761010080835404028352916020019161028a565b820191906000526020600020905b81548152906001019060200180831161026d57829003601f168201915b505050505081526020016002820160009054906101000a900460ff1615151515815250508152602001906001019061014c565b50505050905090565b600082511161030a576040517f08c379a00000000000000000000000000000000000000000000000000000000081526004016103019061104f565b60405180910390fd5b600081511161034e576040517f08c379a0000000000000000000000000000000000000000000000000000000008152600401610345906110bb565b60405180910390fd5b600060405180606001604052808381526020018481526020016001151581525090506000803373ffffffffffffffffffffffffffffffffffffffff1673ffffffffffffffffffffffffffffffffffffffff16815260200190815260200160002081908060018154018082558091505060019003906000526020600020906003020160009091909190915060008201518160000190816103ed9190611287565b5060208201518160010190816104039190611287565b5060408201518160020160006101000a81548160ff02191690831515021790555050503373ffffffffffffffffffffffffffffffffffffffff167fbfefa59b16be4b348ad74254e31f16a631ec47799e24b3cba0ba5df3e9c21cab84844260405161047093929190611392565b60405180910390a2505050565b6000805b6000803373ffffffffffffffffffffffffffffffffffffffff1673ffffffffffffffffffffffffffffffffffffffff1681526020019081526020016000208054905081101561080957826040516020016104db9190611413565b604051602081830303815290604052805190602001206000803373ffffffffffffffffffffffffffffffffffffffff1673ffffffffffffffffffffffffffffffffffffffff16815260200190815260200160002082815481106105415761054061142a565b5b906000526020600020906003020160010160405160200161056291906114dc565b60405160208183030381529060405280519060200120036107f6576000803373ffffffffffffffffffffffffffffffffffffffff1673ffffffffffffffffffffffffffffffffffffffff16815260200190815260200160002081815481106105cd576105cc61142a565b5b906000526020600020906003020160020160009054906101000a900460ff161561062c576040517f08c379a00000000000000000000000000000000000000000000000000000000081526004016106239061153f565b60405180910390fd5b60008060003373ffffffffffffffffffffffffffffffffffffffff1673ffffffffffffffffffffffffffffffffffffffff168152602001908152602001600020828154811061067e5761067d61142a565b5b9060005260206000209060030201600001805461069a90610fc1565b80601f01602080910402602001604051908101604052809291908181526020018280546106c690610fc1565b80156107135780601f106106e857610100808354040283529160200191610713565b820191906000526020600020905b8154815290600101906020018083116106f657829003601f168201915b50505050509050600042905060016000803373ffffffffffffffffffffffffffffffffffffffff1673ffffffffffffffffffffffffffffffffffffffff16815260200190815260200160002084815481106107715761077061142a565b5b906000526020600020906003020160020160006101000a81548160ff0219169083151502179055503373ffffffffffffffffffffffffffffffffffffffff167f94f3280782a689f9b5270d95aa3b2b6bf6d99f067a9010fc5aea8a1ffc2365a78684846040516107e393929190611392565b60405180910390a2600193505050610809565b80806108019061158e565b915050610481565b508061084a576040517f08c379a000000000000000000000000000000000000000000000000000000000815260040161084190611622565b60405180910390fd5b5050565b6000805b6000803373ffffffffffffffffffffffffffffffffffffffff1673ffffffffffffffffffffffffffffffffffffffff16815260200190815260200160002080549050811015610ae057826040516020016108ac9190611413565b604051602081830303815290604052805190602001206000803373ffffffffffffffffffffffffffffffffffffffff1673ffffffffffffffffffffffffffffffffffffffff16815260200190815260200160002082815481106109125761091161142a565b5b906000526020600020906003020160010160405160200161093391906114dc565b6040516020818303038152906040528051906020012003610acd576000803373ffffffffffffffffffffffffffffffffffffffff1673ffffffffffffffffffffffffffffffffffffffff168152602001908152602001600020818154811061099e5761099d61142a565b5b906000526020600020906003020160020160009054906101000a900460ff166109fc576040517f08c379a00000000000000000000000000000000000000000000000000000000081526004016109f39061168e565b60405180910390fd5b60008060003373ffffffffffffffffffffffffffffffffffffffff1673ffffffffffffffffffffffffffffffffffffffff1681526020019081526020016000208281548110610a4e57610a4d61142a565b5b906000526020600020906003020160020160006101000a81548160ff0219169083151502179055503373ffffffffffffffffffffffffffffffffffffffff167f14a51c77a00d5c4c3ccc7a4df74f169088c4d4d04859d176729645e53c7b895c84604051610abc91906116ae565b60405180910390a260019150610ae0565b8080610ad89061158e565b915050610852565b5080610b21576040517f08c379a0000000000000000000000000000000000000000000000000000000008152600401610b1890611622565b60405180910390fd5b5050565b60008060003373ffffffffffffffffffffffffffffffffffffffff1673ffffffffffffffffffffffffffffffffffffffff16815260200190815260200160002080549050905090565b600081519050919050565b600082825260208201905092915050565b6000819050602082019050919050565b600081519050919050565b600082825260208201905092915050565b60005b83811015610bd4578082015181840152602081019050610bb9565b60008484015250505050565b6000601f19601f8301169050919050565b6000610bfc82610b9a565b610c068185610ba5565b9350610c16818560208601610bb6565b610c1f81610be0565b840191505092915050565b60008115159050919050565b610c3f81610c2a565b82525050565b60006060830160008301518482036000860152610c628282610bf1565b91505060208301518482036020860152610c7c8282610bf1565b9150506040830151610c916040860182610c36565b508091505092915050565b6000610ca88383610c45565b905092915050565b6000602082019050919050565b6000610cc882610b6e565b610cd28185610b79565b935083602082028501610ce485610b8a565b8060005b85811015610d205784840389528151610d018582610c9c565b9450610d0c83610cb0565b925060208a01995050600181019050610ce8565b50829750879550505050505092915050565b60006020820190508181036000830152610d4c8184610cbd565b905092915050565b6000604051905090565b600080fd5b600080fd5b600080fd5b600080fd5b7f4e487b7100000000000000000000000000000000000000000000000000000000600052604160045260246000fd5b610daa82610be0565b810181811067ffffffffffffffff82111715610dc957610dc8610d72565b5b80604052505050565b6000610ddc610d54565b9050610de88282610da1565b919050565b600067ffffffffffffffff821115610e0857610e07610d72565b5b610e1182610be0565b9050602081019050919050565b82818337600083830152505050565b6000610e40610e3b84610ded565b610dd2565b905082815260208101848484011115610e5c57610e5b610d6d565b5b610e67848285610e1e565b509392505050565b600082601f830112610e8457610e83610d68565b5b8135610e94848260208601610e2d565b91505092915050565b60008060408385031215610eb457610eb3610d5e565b5b600083013567ffffffffffffffff811115610ed257610ed1610d63565b5b610ede85828601610e6f565b925050602083013567ffffffffffffffff811115610eff57610efe610d63565b5b610f0b85828601610e6f565b9150509250929050565b600060208284031215610f2b57610f2a610d5e565b5b600082013567ffffffffffffffff811115610f4957610f48610d63565b5b610f5584828501610e6f565b91505092915050565b6000819050919050565b610f7181610f5e565b82525050565b6000602082019050610f8c6000830184610f68565b92915050565b7f4e487b7100000000000000000000000000000000000000000000000000000000600052602260045260246000fd5b60006002820490506001821680610fd957607f821691505b602082108103610fec57610feb610f92565b5b50919050565b600082825260208201905092915050565b7f4950465320686173682063616e6e6f7420626520656d70747900000000000000600082015250565b6000611039601983610ff2565b915061104482611003565b602082019050919050565b600060208201905081810360008301526110688161102c565b9050919050565b7f46696c65206e616d652063616e6e6f7420626520656d70747900000000000000600082015250565b60006110a5601983610ff2565b91506110b08261106f565b602082019050919050565b600060208201905081810360008301526110d481611098565b9050919050565b60008190508160005260206000209050919050565b60006020601f8301049050919050565b600082821b905092915050565b60006008830261113d7fffffffffffffffffffffffffffffffffffffffffffffffffffffffffffffffff82611100565b6111478683611100565b95508019841693508086168417925050509392505050565b6000819050919050565b600061118461117f61117a84610f5e565b61115f565b610f5e565b9050919050565b6000819050919050565b61119e83611169565b6111b26111aa8261118b565b84845461110d565b825550505050565b600090565b6111c76111ba565b6111d2818484611195565b505050565b5b818110156111f6576111eb6000826111bf565b6001810190506111d8565b5050565b601f82111561123b5761120c816110db565b611215846110f0565b81016020851015611224578190505b611238611230856110f0565b8301826111d7565b50505b505050565b600082821c905092915050565b600061125e60001984600802611240565b1980831691505092915050565b6000611277838361124d565b9150826002028217905092915050565b61129082610b9a565b67ffffffffffffffff8111156112a9576112a8610d72565b5b6112b38254610fc1565b6112be8282856111fa565b600060209050601f8311600181146112f157600084156112df578287015190505b6112e9858261126b565b865550611351565b601f1984166112ff866110db565b60005b8281101561132757848901518255600182019150602085019450602081019050611302565b868310156113445784890151611340601f89168261124d565b8355505b6001600288020188555050505b505050505050565b600061136482610b9a565b61136e8185610ff2565b935061137e818560208601610bb6565b61138781610be0565b840191505092915050565b600060608201905081810360008301526113ac8186611359565b905081810360208301526113c08185611359565b90506113cf6040830184610f68565b949350505050565b600081905092915050565b60006113ed82610b9a565b6113f781856113d7565b9350611407818560208601610bb6565b80840191505092915050565b600061141f82846113e2565b915081905092915050565b7f4e487b7100000000000000000000000000000000000000000000000000000000600052603260045260246000fd5b6000815461146681610fc1565b61147081866113d7565b9450600182166000811461148b57600181146114a0576114d3565b60ff19831686528115158202860193506114d3565b6114a9856110db565b60005b838110156114cb578154818901526001820191506020810190506114ac565b838801955050505b50505092915050565b60006114e88284611459565b915081905092915050565b7f46696c65206973206e6f742064656c6574656400000000000000000000000000600082015250565b6000611529601383610ff2565b9150611534826114f3565b602082019050919050565b600060208201905081810360008301526115588161151c565b9050919050565b7f4e487b7100000000000000000000000000000000000000000000000000000000600052601160045260246000fd5b600061159982610f5e565b91507fffffffffffffffffffffffffffffffffffffffffffffffffffffffffffffffff82036115cb576115ca61155f565b5b600182019050919050565b7f46696c65206e6f7420666f756e64000000000000000000000000000000000000600082015250565b600061160c600e83610ff2565b9150611617826115d6565b602082019050919050565b6000602082019050818103600083015261163b816115ff565b9050919050565b7f46696c6520616c72656164792064656c65746564000000000000000000000000600082015250565b6000611678601483610ff2565b915061168382611642565b602082019050919050565b600060208201905081810360008301526116a78161166b565b9050919050565b600060208201905081810360008301526116c88184611359565b90509291505056fea2646970667358221220da964b3b960c1a4f328eb26ef65405a584bee4bc772d5c785b9b9342b149ce0764736f6c63430008130033",
  "linkReferences": {},
  "deployedLinkReferences": {}
}